:020000040000FA
:100000000C945D000C9485000C9485000C94850084
:100010000C9485000C9485000C9485000C9485004C
:100020000C9485000C9485000C9485000C9485003C
:100030000C9485000C9485000C9485000C9485002C
:100040000C9484040C9485000C9485000C94850019
:100050000C9485000C9485000C9485000C9485000C
:100060000C94CE040C9485000000000024002700AE
:100070002A0000000000250028002B0004040404CE
:100080000404040402020202020203030303030342
:10009000010204081020408001020408102001021F
:1000A00004081020000000080002010000030407FB
:1000B0000000000000000000ED0511241FBECFEF7E
:1000C000D8E0DEBFCDBF11E0A0E0B1E0E4E3F3E1B2
:1000D00002C005900D92A636B107D9F722E0A6E638
:1000E000B1E001C01D92A734B207E1F710E0CDE501
:1000F000D0E004C02197FE010E949209CC35D107BF
:10010000C9F70E940F060C9498090C9400000895FA
:100110000895AF92BF92CF92DF92EF92FF920F932A
:100120001F93CF93DF936C017B018B01040F151F8D
:10013000EB015E01AE18BF08C017D10759F06991F5
:10014000D601ED91FC910190F081E02DC601099559
:10015000892B79F7C501DF91CF911F910F91FF9006
:10016000EF90DF90CF90BF90AF90089590E0FC01AA
:10017000EC55FF4F2491FC01E057FF4F3491FC01F7
:10018000E458FF4FE491EE23C9F0222339F02330E5
:1001900001F1A8F4213019F1223029F1F0E0EE0F3D
:1001A000FF1FEE58FF4FA591B4918FB7F894EC91D3
:1001B000611126C030953E233C938FBF08952730B0
:1001C000A9F02830C9F0243049F7809180008F7D54
:1001D00003C0809180008F7780938000DFCF84B54B
:1001E0008F7784BDDBCF84B58F7DFBCF8091B0004E
:1001F0008F778093B000D2CF8091B0008F7DF9CF00
:100200003E2BDACFCF93DF9390E0FC01E057FF4F16
:10021000249184589F4FFC0184918823D1F090E071
:10022000880F991FFC01E859FF4FA591B491FC017B
:10023000EE58FF4FC591D49161110EC09FB7F8944D
:100240008C91E22FE0958E238C932881E223E88322
:100250009FBFDF91CF9108958FB7F894EC91E22B77
:10026000EC938FBFF6CF3FB7F89480911D02909129
:100270001E02A0911F02B091200226B5A89B05C0C6
:100280002F3F19F00196A11DB11D3FBFBA2FA92F15
:10029000982F8827BC01CD01620F711D811D911D12
:1002A00042E0660F771F881F991F4A95D1F708957E
:1002B0008F929F92AF92BF92CF92DF92EF92FF9276
:1002C0004B015C010E9433016B017C010E943301F0
:1002D0006C197D098E099F09683E7340810591055F
:1002E000A8F321E0821A9108A108B10888EEC80E8F
:1002F00083E0D81EE11CF11C81149104A104B10417
:1003000029F7FF90EF90DF90CF90BF90AF909F9034
:100310008F90089508952091A701260F3327331F4A
:1003200021323105ECF42091F001FC0190E080E0F5
:10033000243069F082E00895A091A7012191AC01D9
:1003400049575E4FA40FB52FB11D2C930196861708
:1003500098F38091A701680F6093A70180E008954A
:1003600081E008951092F00181E08093EF011092F6
:10037000CA0161E082E10E94B60061E083E10E946F
:10038000B600E9EBF0E080818E7F808380818D7FF5
:10039000808388E48093B80085E48093BC0008954E
:1003A000CF93DF9391E0909386018823B9F0C091B9
:1003B000B800D091BA008091BC008A7B8093BC00C9
:1003C00060E082E10E94B60060E083E10E94B60036
:1003D0000E94B201D093BA00C093B800DF91CF91D0
:1003E00008950895E091280280912702E81730F4DB
:1003F000F0E0EA59FE4F808190E008958FEF9FEF83
:10040000089590912802809127022FEF3FEF9817CF
:1004100048F4E92FF0E0EA59FE4F208130E09F5F79
:1004200090932802C9010895809127029091280293
:10043000891B990B0895CF92DF92EF92FF920F9351
:100440001F93CF93DF937C01CB018A012091F601AA
:10045000222389F0EB016B01C40ED51ECC15DD05FE
:1004600069F06991D701ED91FC910190F081E02D47
:10047000C7010995F3CF642F0E948B01C801DF915A
:10048000CF911F910F91FF90EF90DF90CF90089543
:10049000CF93DF931F92CDB7DEB769832091F6012A
:1004A0002223F9F020912502203258F021E030E09B
:1004B000FC013383228390E080E00F90DF91CF91A5
:1004C000089580912602E82FF0E0E950FE4F9981CF
:1004D00090838F5F809326028093250281E090E0D5
:1004E000ECCF61E0CE0101960E948B01F7CFCF9255
:1004F000DF92EF92FF920F931F93CF93DF93FC0154
:10050000C48121E02093F601C093170210922602C5
:10051000109225028385682B8FE292E00E944802A8
:10052000D0912502D13208F092C00E9433016B01B4
:100530007C018091F001811165C082E08093F0011F
:1005400081E08093EF018FEF8093EE011092ED0137
:10055000D093EC01A7EFB1E0ECECF1E080E0D81330
:1005600085C01092CB018091CB01CC0FC82BC093DA
:10057000CB018091CA01813009F07CC01092CA0180
:100580000E9433016B017C018091CB018093BB0001
:100590008091F2019091F301A091F401B091F501E5
:1005A000892B8A2B8B2B99F00E9433010091F20149
:1005B0001091F3012091F4013091F5016C197D093E
:1005C0008E099F090617170728073907E0F1809160
:1005D000BC0083FDD9CF85EC8093BC000E94330121
:1005E0006B017C018091F001823009F445C080915B
:1005F000EE018F3F61F18091EE01803241F18091F7
:10060000EE0125C08091F2019091F301A091F401D7
:10061000B091F501892B8A2B8B2B09F48ACF0E948C
:1006200033010091F2011091F3012091F401309116
:10063000F5016C197D098E099F0906171707280710
:10064000390708F076CF8091F1010E94D001109215
:100650002602109225021092F601DF91CF911F9190
:100660000F91FF90EF90DF90CF9008959D9191931F
:100670008F5F75CF85EEB0CF8091F2019091F3013D
:10068000A091F401B091F501892B8A2B8B2B09F4F1
:10069000A9CF0E9433010091F2011091F301209142
:1006A000F4013091F5016C197D098E099F09061737
:1006B00017072807390708F095CFC5CF90E080E0ED
:1006C00008958F929F92AF92BF920F931F93CF93F3
:1006D000DF93CDB7DEB7A1970FB6F894DEBF0FBE9C
:1006E000CDBF19A2423008F44AE08E010F5D1F4FC2
:1006F000842E912CB12CA12CA50194010E943008CC
:10070000E62FB901CA01EA3044F5E05DD801EE9365
:100710008D01232B242B252B79F790E080E0109777
:1007200069F0FD0101900020E9F73197AF014A1B04
:100730005B0BBD018BE392E00E948900A1960FB68E
:10074000F894DEBF0FBECDBFDF91CF911F910F9107
:10075000BF90AF909F908F900895E95CD7CFFC0138
:1007600001900020E9F73197AF01481B590BBC01FC
:100770008BE392E00C9489000F931F93CF938C012D
:10078000C62F0E9477026C2F6460C8010E94770216
:100790006C2F6B7FC8010E94770283EC90E0019779
:1007A000F1F7CF911F910F9108950F931F93CF935E
:1007B000DF938C01D62FC42F607F642B0E94BC0373
:1007C00080E1D89FB00111246C2BC801DF91CF913B
:1007D0001F910F910C94BC03CF93DF93CDB7DEB77D
:1007E00028970FB6F894DEBF0FBECDBF98E0E0E0CB
:1007F000F1E0DE01119601900D929A95E1F790914A
:100800004402981708F48FEF90E0880F991F21E0B9
:1008100030E02C0F3D1F820F931FFC016081606848
:1008200040E08BE392E028960FB6F894DEBF0FBE4F
:10083000CDBFDF91CF910C94D50341E00E94D50349
:1008400081E090E00895CF92DF92EF92FF926C01E9
:10085000990FEE08FF08F7FE16C041E06DE28BE34A
:1008600092E00E94D50366277727CB016C197D099A
:100870008E099F094AE00E9461030196FF90EF9064
:10088000DF90CF9008954AE0C701B601FF90EF9046
:10089000DF90CF900C94610385ED8093BC00809134
:1008A000F2019091F301A091F401B091F501079646
:1008B000A11DB11D23E0B695A795979587952A951B
:1008C000D1F72091BC0024FD03C01092F0010895DF
:1008D0004091F2015091F3016091F4017091F501A2
:1008E000452B462B472B69F30097A105B10541F035
:1008F00025E32A95F1F700000197A109B109E1CF9D
:100900008091F1010C94D0011F920F920FB60F92BB
:1009100011242F933F938F939F93AF93BF93809115
:10092000190290911A02A0911B02B0911C02309101
:10093000180223E0230F2D3758F50196A11DB11D94
:10094000209318028093190290931A02A0931B021D
:10095000B0931C0280911D0290911E02A0911F0273
:10096000B09120020196A11DB11D80931D029093AC
:100970001E02A0931F02B0932002BF91AF919F91DE
:100980008F913F912F910F900FBE0F901F90189550
:1009900026E8230F0296A11DB11DD2CF1F920F9200
:1009A0000FB60F9211242F933F934F935F936F9342
:1009B0007F938F939F93AF93BF93EF93FF93809118
:1009C000B900887F803609F44AC0F0F5883209F40E
:1009D000A7C018F5803109F49BC0B8F4882309F446
:1009E000F9C0883009F494C0FF91EF91BF91AF91A5
:1009F0009F918F917F916F915F914F913F912F9137
:100A00000F900FBE0F901F901895883109F488C081
:100A1000803251F78093EE0114C0803409F49DC0F8
:100A200040F48033B9F38833F9F68093EE0185EC16
:100A3000B0C0803509F485C0883509F496C0883483
:100A400099F60E944C04D0CF883909F48CC038F54F
:100A5000883729F050F4883611F0803729F683E082
:100A60008093F0011092C90157C0883809F47BC007
:100A7000803919F0803809F0B7CF8091C9018032F0
:100A800008F071C0E091C90181E08E0F8093C90127
:100A90008091BB00F0E0E755FE4F80833DC0803B76
:100AA00039F0E0F4803A09F479C0883A09F09CCF33
:100AB00084E08093F0011092A8011092A701E091C8
:100AC0002302F091240209958091A70181110FC0A2
:100AD00081E08093A7011092870109C0803C09F44E
:100AE000A6CF883C09F4A3CF883B09F07DCFE091E5
:100AF000A80181E08E0F8093A801F0E0E957FE4F36
:100B000080818093BB009091A8018091A70129C0AA
:100B10008091CB018093BB0085EC8093BC0064CFB7
:100B20009091ED018091EC01981758F5E091ED015D
:100B300081E08E0F8093ED01F0E0E453FE4F808161
:100B4000E9CFE091ED0181E08E0F8093ED0180917E
:100B5000BB00F0E0E453FE4F80839091ED01809163
:100B6000EC019817C8F285E8D8CFE091ED0181E05B
:100B70008E0F8093ED018091BB00F0E0E453FE4FB7
:100B800080838091EF0181115CCF81E08093CA0165
:100B900084EA8093BC001092F00126CF85EC80930C
:100BA000BC001092F0018091C901803230F4E091D4
:100BB000C901F0E0E755FE4F10826091C90170E075
:100BC000E0912102F091220289EA91E009951092C8
:100BD000C9010ACF1092EE0134CFEFE2F2E01382A6
:100BE000128288EE93E0A0E0B0E084839583A68330
:100BF000B7838CE091E091838083EBE3F2E0138292
:100C000012828EE191E09183808387E2848380E188
:100C1000808782E08187128688E0838708957894B0
:100C200084B5826084BD84B5816084BD85B58260F1
:100C300085BD85B5816085BD80916E0081608093A2
:100C40006E0010928100809181008260809381000B
:100C5000809181008160809381008091800081601B
:100C6000809380008091B10084608093B100809176
:100C7000B00081608093B00080917A00846080939E
:100C80007A0080917A00826080937A0080917A0065
:100C9000816080937A0080917A00806880937A00E6
:100CA0001092C10061E08BE00E94020161E08DE0E2
:100CB0000E94020160E08EE00E9402011092280270
:100CC0001092270210922602109225020E94B20171
:100CD00087E890E0909324028093230288E890E0D4
:100CE000909322028093210210924002809144024C
:100CF000823018F098E09093400290914502992339
:100D000039F0813029F48091400284608093400260
:100D100062E370E080E090E00E945801609146023A
:100D20008BE392E00E94770268EE73E080E090E04F
:100D30000E94580160E38BE392E00E94BC03CBE485
:100D4000D6E4CE010197F1F760E38BE392E00E94D5
:100D5000BC032197F1F760E38BE392E00E94BC03B0
:100D600083E592E00197F1F760E28BE392E00E9465
:100D7000BC0360914002606240E08BE392E00E941D
:100D8000D50384E08093410240E06CE08BE392E085
:100D90000E94D50340E061E08BE392E00E94D5031E
:100DA000CBE3DFE1CE010197F1F782E080934202CD
:100DB00040E066E08BE392E00E94D50340E062E011
:100DC0008BE392E00E94D503CE010197F1F780E01A
:100DD0000E94EC0386E291E00E94AF0381E00E9452
:100DE000EC0388E391E00E94AF0360ED77E080E0E0
:100DF00090E00E94580140E061E08BE392E00E94A5
:100E0000D5032197F1F781E1882E912CA12CB12CEB
:100E10009FEA292E90E0392E00E010E080E48093D4
:100E20007C0080917A00806480937A0080917A00BF
:100E300086FDFCCF8091780060917900762F682F35
:100E4000072E000C880B990B0E94990820E030E0D7
:100E50004AEF5EE30E94FD080E94610870932E0233
:100E600060932D029B01225131092231310508F096
:100E70005BC02B01770F66087708E2E14E1A510834
:100E800061087108AFEDB0E0A30192010E9425084E
:100E9000A50194010E94060869017A01F0E2CF0ED3
:100EA000D11CE11CF11CE601D0922C02C0922B0255
:100EB000A4E6B0E0A30192010E942508A5019401D7
:100EC0000E94060830932A022093290261E08BE0F9
:100ED0000E940201CF3FD10529F461E08BE00E941E
:100EE000B60022C0F10184918330C1F148F4813011
:100EF000B9F0823071F1C038D1057CF760E0EECFF7
:100F00008730B1F18830E1F18430A9F78091800019
:100F1000806280938000D0928B00C0928A0004C0CF
:100F200084B5806884BDC7BC80912D0290912E024B
:100F3000823191056CF510922C0210922B021092C6
:100F40002A021092290260E08BE00E94B60060E065
:100F500026C084B5806284BDC8BCE6CF8091800085
:100F6000806880938000D0928900C0928800DCCF96
:100F70008091B00080688093B000C092B300D4CF5D
:100F80008091B00080628093B000C092B400CCCF5A
:100F90008497ECF261E08BE00E94B60061E08DE0A6
:100FA0000E94B60080E00E94EC0385E491E00E947C
:100FB000AF0380912D0290912E020E9423046FEDC9
:100FC0008BE392E00E941D0482E591E00E94AF0352
:100FD00081E00E94EC0386E591E00E94AF038091DE
:100FE000290290912A020E94230481E691E00E9446
:100FF000AF0368EC70E080E090E00E9458010115BA
:10100000110509F40BCF0E94000008CF052E97FBB5
:101010001EF400940E941D0857FD07D00E9430085E
:1010200007FC03D04EF40C941D0850954095309564
:1010300021953F4F4F4F5F4F089590958095709544
:1010400061957F4F8F4F9F4F08950E945208A59F33
:10105000900DB49F900DA49F800D911D11240895B3
:10106000A1E21A2EAA1BBB1BFD010DC0AA1FBB1FAC
:10107000EE1FFF1FA217B307E407F50720F0A21B1E
:10108000B30BE40BF50B661F771F881F991F1A948B
:1010900069F760957095809590959B01AC01BD01B5
:1010A000CF010895A29FB001B39FC001A39F700D0F
:1010B000811D1124911DB29F700D811D1124911D60
:1010C00008950E9468086894B1110C94F708089577
:1010D0000E94DC0888F09F5798F0B92F9927B751E4
:1010E000B0F0E1F0660F771F881F991F1AF0BA95CC
:1010F000C9F714C0B13091F00E94F608B1E008952C
:101100000C94F608672F782F8827B85F39F0B93F1D
:10111000CCF3869577956795B395D9F73EF490957E
:101120008095709561957F4F8F4F9F4F0895E894FC
:1011300009C097FB3EF490958095709561957F4F1F
:101140008F4F9F4F9923A9F0F92F96E9BB279395CD
:10115000F695879577956795B795F111F8CFFAF4DD
:10116000BB0F11F460FF1BC06F5F7F4F8F4F9F4F0E
:1011700016C0882311F096E911C0772321F09EE86C
:10118000872F762F05C0662371F096E8862F70E0D2
:1011900060E02AF09A95660F771F881FDAF7880FAC
:1011A0009695879597F9089557FD9058440F551FC8
:1011B00059F05F3F71F04795880F97FB991F61F0D9
:1011C0009F3F79F087950895121613061406551F50
:1011D000F2CF4695F1DF08C0161617061806991FBC
:1011E000F1CF86957105610508940895E894BB27B1
:1011F00066277727CB0197F908950E9410090C9470
:1012000081090E94730938F00E947A0920F0952321
:1012100011F00C946A090C94700911240C94F708CD
:101220000E94D40870F3959FC1F3950F50E0551FAD
:10123000629FF001729FBB27F00DB11D639FAA272B
:10124000F00DB11DAA1F649F6627B00DA11D661F7A
:10125000829F2227B00DA11D621F739FB00DA11D9B
:10126000621F839FA00D611D221F749F3327A00D55
:10127000611D231F849F600D211D822F762F6A2FF1
:1012800011249F5750409AF0F1F088234AF0EE0F56
:10129000FF1FBB1F661F771F881F91505040A9F783
:1012A0009E3F510580F00C946A090C94F7085F3F4B
:1012B000E4F3983ED4F3869577956795B795F795BF
:1012C000E7959F5FC1F7FE2B880F911D9695879537
:1012D00097F9089597F99F6780E870E060E00895B6
:1012E0009FEF80EC089500240A941616170618063E
:1012F0000906089500240A9412161306140605061A
:101300000895092E0394000C11F4882352F0BB0FAA
:1013100040F4BF2B11F460FF04C06F5F7F4F8F4F0D
:101320009F4F0895EE0FFF1F0590F491E02D099453
:10133000F894FFCF000040001400540000000000AB
:1013400048021B025E03F10114020102F2010000D7
:1013500000001D0489005E038A012057454C434F5D
:101360004D4520546F20204F75722000204E657728
:101370002050726F6A6563740054656D70657261A8
:10138000747572653A004320200046616E205370E8
:0A1390006565643A00252020200066
:107E0000112484B714BE81FFF0D085E080938100F7
:107E100082E08093C00088E18093C10086E0809377
:107E2000C20080E18093C4008EE0C9D0259A86E02C
:107E300020E33CEF91E0309385002093840096BBD3
:107E4000B09BFECF1D9AA8958150A9F7CC24DD24C4
:107E500088248394B5E0AB2EA1E19A2EF3E0BF2EE7
:107E6000A2D0813461F49FD0082FAFD0023811F036
:107E7000013811F484E001C083E08DD089C08234E0
:107E800011F484E103C0853419F485E0A6D080C0E4
:107E9000853579F488D0E82EFF2485D0082F10E0AE
:107EA000102F00270E291F29000F111F8ED06801E7
:107EB0006FC0863521F484E090D080E0DECF843638
:107EC00009F040C070D06FD0082F6DD080E0C81688
:107ED00080E7D80618F4F601B7BEE895C0E0D1E017
:107EE00062D089930C17E1F7F0E0CF16F0E7DF06D8
:107EF00018F0F601B7BEE89568D007B600FCFDCFD4
:107F0000A601A0E0B1E02C9130E011968C91119780
:107F100090E0982F8827822B932B1296FA010C0160
:107F200087BEE89511244E5F5F4FF1E0A038BF0790
:107F300051F7F601A7BEE89507B600FCFDCF97BE46
:107F4000E89526C08437B1F42ED02DD0F82E2BD052
:107F50003CD0F601EF2C8F010F5F1F4F84911BD097
:107F6000EA94F801C1F70894C11CD11CFA94CF0C13
:107F7000D11C0EC0853739F428D08EE10CD085E9AC
:107F80000AD08FE07ACF813511F488E018D01DD067
:107F900080E101D065CF982F8091C00085FFFCCF94
:107FA0009093C60008958091C00087FFFCCF809118
:107FB000C00084FD01C0A8958091C6000895E0E648
:107FC000F0E098E1908380830895EDDF803219F02E
:107FD00088E0F5DFFFCF84E1DECF1F93182FE3DFCA
:107FE0001150E9F7F2DF1F91089580E0E8DFEE27F6
:047FF000FF270994CA
:027FFE00040479
:00000001FF
